{
    "contractName": "IanBucksToken",
    "abi": [
        {
            "constant": true,
            "inputs": [],
            "name": "name",
            "outputs": [
                {
                    "internalType": "string",
                    "name": "",
                    "type": "string"
                }
            ],
            "payable": false,
            "stateMutability": "view",
            "type": "function"
        },
        {
            "constant": true,
            "inputs": [],
            "name": "totalSupply",
            "outputs": [
                {
                    "internalType": "uint256",
                    "name": "",
                    "type": "uint256"
                }
            ],
            "payable": false,
            "stateMutability": "view",
            "type": "function"
        },
        {
            "constant": true,
            "inputs": [
                {
                    "internalType": "address",
                    "name": "",
                    "type": "address"
                }
            ],
            "name": "balanceOf",
            "outputs": [
                {
                    "internalType": "uint256",
                    "name": "",
                    "type": "uint256"
                }
            ],
            "payable": false,
            "stateMutability": "view",
            "type": "function"
        },
        {
            "constant": true,
            "inputs": [],
            "name": "symbol",
            "outputs": [
                {
                    "internalType": "string",
                    "name": "",
                    "type": "string"
                }
            ],
            "payable": false,
            "stateMutability": "view",
            "type": "function"
        },
        {
            "inputs": [
                {
                    "internalType": "uint256",
                    "name": "_initialSupply",
                    "type": "uint256"
                }
            ],
            "payable": false,
            "stateMutability": "nonpayable",
            "type": "constructor"
        }
    ],
    "bytecode": "60c0604052600f60808190527f49616e204275636b7320546f6b656e000000000000000000000000000000000060a090815261003e91600091906100cf565b506040805180820190915260048082527f4942554b000000000000000000000000000000000000000000000000000000006020909201918252610083916001916100cf565b5034801561009057600080fd5b506040516103c43803806103c4833981810160405260208110156100b357600080fd5b505133600090815260036020526040902081905560025561016a565b828054600181600116156101000203166002900490600052602060002090601f016020900481019282601f1061011057805160ff191683800117855561013d565b8280016001018555821561013d579182015b8281111561013d578251825591602001919060010190610122565b5061014992915061014d565b5090565b61016791905b808211156101495760008155600101610153565b90565b61024b806101796000396000f3fe608060405234801561001057600080fd5b506004361061004c5760003560e01c806306fdde031461005157806318160ddd146100ce57806370a08231146100e857806395d89b411461010e575b600080fd5b610059610116565b6040805160208082528351818301528351919283929083019185019080838360005b8381101561009357818101518382015260200161007b565b50505050905090810190601f1680156100c05780820380516001836020036101000a031916815260200191505b509250505060405180910390f35b6100d66101a4565b60408051918252519081900360200190f35b6100d6600480360360208110156100fe57600080fd5b50356001600160a01b03166101aa565b6100596101bc565b6000805460408051602060026001851615610100026000190190941693909304601f8101849004840282018401909252818152929183018282801561019c5780601f106101715761010080835404028352916020019161019c565b820191906000526020600020905b81548152906001019060200180831161017f57829003601f168201915b505050505081565b60025481565b60036020526000908152604090205481565b60018054604080516020600284861615610100026000190190941693909304601f8101849004840282018401909252818152929183018282801561019c5780601f106101715761010080835404028352916020019161019c56fea265627a7a723158204a29db8bbc7b5fe4074c2b7235ce36cade009c9744c0211cf9dfa90928983a1564736f6c634300050b0032",
    "sourcePath": "c:/Users/tyler/OneDrive/Desktop/Crypto Tutorial/contracts/IanBucksToken.sol",
    "compiler": {
        "name": "solc",
        "version": "0.5.11+commit.c082d0b4"
    },
    "functionHashes": {
        "balanceOf(address)": "70a08231",
        "name()": "06fdde03",
        "symbol()": "95d89b41",
        "totalSupply()": "18160ddd"
    },
    "gasEstimates": {
        "creation": {
            "codeDepositCost": "117400",
            "executionCost": "infinite",
            "totalCost": "infinite"
        },
        "external": {
            "balanceOf(address)": "546",
            "name()": "infinite",
            "symbol()": "infinite",
            "totalSupply()": "398"
        }
    }
}